:1000000070EF01F06C612074656D706572617475DC
:100010007261200A2065733A202575204300EA6A40
:100020000D0EE96EEF500EE0010E016E006A002E1B
:10003000FED7012EFBD74A0E006E002EFED700D051
:10004000EF2EF2D712001338F00B006E0F0E8C1447
:1000500000108C6E00008C8000D08C9012008350B9
:10006000006E00380F0B016E12000F0E9514F00990
:10007000956E8C8400008C800000F1DF01C013F0CD
:100080008C9000008C800000EADF01C012F08C90A0
:100090000F0E9514956E1338006EF00E001600507A
:1000A0001210016E59EF00F09590959295948C92F4
:1000B000DCD701C012F001BEFBD78C9210B08C824D
:1000C00000008C9400008C901138126E0F0E1216E6
:1000D00012C013F0B8DF11500F0B126E136EB3DFA6
:1000E0001200280E096E0C0E0A6E010E0B6E060E23
:1000F0000C6E8C908C928C940F0E9514956E95903E
:10010000959295940F0E0D6E8ADF010E086E0850C1
:10011000030808E3030E136E96DF050E0D6E7FDFF6
:10012000082AF5D7020E136E8EDF050E0D6E77DFEF
:10013000086A085003080FE3036A0850090FE96EC4
:10014000000E0320EA6EEFCF0DF0106A0DC011F023
:10015000ABDF082AEED784EF01F008500A02F3CF94
:1001600001F0F4CF00F00B02F350002609500A0210
:10017000F3500020026E9FEF01F0016A026A006AEC
:10018000036A0D5002E10C5018E0100E0E6ED8906C
:100190000A360B36003603360D50035C02E10C5074
:1001A000005C07E30C50005ED8A003060D50035E10
:1001B000D880013602360E2EEAD7ABEF01F00D2CB7
:1001C00001D003D0400E0E6E01D00E6A010E0C5C01
:1001D0000E260E5080090F6E106A116E65DF120038
:1001E0000B50070A07E00B0A0AE0060A10E0020AB1
:1001F00014E018D0010E0C6E0D6EE1DF18D0106AFD
:10020000010E116E51DF020E0D6E09DF10D0010ECE
:100210000C6E020E0D6ED3DF0AD0106A100E116E36
:1002200043DF05D0010E106E0BC011F03DDF120050
:100230000900F6CF09F0F7CF0AF0F5CF0BF0D0DFC9
:1002400009C0F6FF0AC0F7FF082EF2D7B8EF01F099
:100250000B50016A0A5C03E20AC000F00CD0006A8D
:10026000080E0C6E0A3600360B50005CD8B0006EDB
:1002700001360C2EF7D71200015008C00AF0640EA8
:100280000B6EE6DF00C008F00150300E07E109A256
:100290000CD009B60AD009B8200E03D009960998E7
:1002A0000980012601C00BF09BDF08C00AF00A0E8E
:1002B0000B6ECEDF00C008F00150300E06E109B62B
:1002C00008D009A006D009B8200E012601C00BF005
:1002D00087DF300E082608C00BF082DFBDEF01F08B
:1002E000F86AD09EC150C00B0F09C16E070EB46EE4
:1002F000C050C00B0709C06EC08EC280C150C00B79
:10030000C16EFF0E936EEDD6000E016EC250C30B90
:100310000110C26E060E006E002EFED70000C282D3
:10032000C2B2FED7C3CF05F0C4CF06F006C009F0B5
:1003300005C008F0010E0B6EF40E0A6E0ED702C057
:1003400009F001C008F002C00BF001C00AF0030E72
:100350000D6E0C6812D701C007F0010E0C6E0D6E09
:100360002EDF040EF66E000EF76E150E086E60D7C7
:1003700007C008F01B0E096E7FD7200E0B6E30DF12
:10038000430E0B6E2DDF060E006E002EFED7000012
:100390000750280804E2936A010E8A6E02D0936A1D
:0603A0008A6AB2D70300D7
:020000040030CA
:0E0000003FC03E1E0087A1000FC00FE00F4062
:00000001FF
;PIC18F4550
;CRC=1BA3  CREATED="12-jun.-20 23:07"
