:10000000ECEF02F0F76A140FF66E000EF72209000B
:10001000F5501200280C01064C612074656D706566
:10002000726174757261200A2065733A2020202560
:100030007520202043004C612054656D706572610D
:1000400074757261200A20657320696E76616C692F
:10005000646100000C00EA6A0B0EE96EEF500DE0DF
:10006000020E016E006A002EFED7012EFBD7970EFE
:10007000006E002EFED7EF2EF3D7000C1238F00BD7
:10008000006E0F0E8C1400108C6E00008C8000D05F
:1000900000D08C90000C8350006E00380F0B016E66
:1000A000000C0F0E9514F009956E8C8400008C8066
:1000B0000000F1DF01C012F08C9000008C8000D0B5
:1000C000EADF01C011F08C900F0E9514956E123876
:1000D000006EF00E001600501110016E72EF00F06D
:1000E0008C92DFD701C011F001BEFBD78C920FB00C
:1000F0008C8200008C9400008C901038116E0F0ED2
:10010000111611C012F0BADF10500F0B116E126EE3
:10011000B5DF000C0F0E9514956E95909592959401
:100120008C928C948C900F0E0B6E95DF010E076EE7
:100130000750030808E3030E126EA0DF050E0B6ED6
:100140008ADF072AF5D7020E126E98DF076A07507A
:1001500003080EE3036A0750F2CF08F0F29E52DF65
:1001600008BEF28E086E0F6A106EBADF072AEFD74C
:1001700004EF03F08E0E006E08C001F007C002F01D
:10018000036A015209E102C001F0026A080E005E32
:10019000015202E1006A08D0D89001BE04D00236B4
:1001A00001360006F9D7019E23EF03F00B50D8B4B7
:1001B00071D0006E0F50D8B46DD0002604E3810ECC
:1001C000002668E204D07F0E005E64E363E00CC0AA
:1001D00013F01050131A0C8E108E0E501202F4CF22
:1001E00015F00D501102F4CF03F0F3CF14F012020A
:1001F000F3501526F4501422000E03220E50110263
:10020000F3501526F4501422000E026A0322022233
:100210000C501202F3501426F4500322000E022256
:100220000C501102F3500326F4500222000E016A12
:1002300001220E501002F3501426F4500322000E37
:10024000022201220D501002F3500326F450022224
:10025000000E01220C501002F3500226F45001222D
:10026000002A01BE05D014360336023601360006D8
:10027000000E14AE0AD0032A02220122015005E129
:10028000025003E1035001E1002A13BE018E13AEB8
:10029000019E04D0006A016A026A036A3AEF03F021
:1002A0000B50D8B4A5D0176E0F50D8B4A1D0175E9C
:1002B00005E37F0E1726D8B09BD006D0810E175EBF
:1002C000D8A096D0D8B494D017C000F0016A026AC2
:1002D000036A166A0CC015F0158E0DC014F00EC01E
:1002E00013F0190E176E1250135E0DE2010E145E1C
:1002F0000AE2155E08E2165E06E2162A152A142A9C
:100300001250132628D01150145E12E2010E155E11
:100310000FE2165E0DE2162A152A1150142612500D
:10032000132619E3142A17E1152A15E1162A13D00A
:1003300010508009155E0EE2010E165E0BE2162AC1
:1003400010508009152611501426E9E3152AE7E11B
:10035000162AE5D70380172E01D00BD0D89013367C
:10036000143615361636D89003360236013618364E
:10037000BAD718A006D0D890013202320332183210
:1003800002D0000635E018BE1ED0D89013361436C1
:10039000153616361250135E07E2010E145E04E2A3
:1003A000155E02E2165E1AE31150145E05E2010EBC
:1003B000155E02E2165E12E310508009155E03E23C
:1003C000010E165E0BE3032A09E1022A07E1012A66
:1003D00005E1002A0DE00132023203320CC017F0B1
:1003E0001050171A17AE02D0018E06D0019E04D00D
:1003F000006A016A026A036A52EF03F08E0E006E11
:100400000750005E08C002F009C001F0028E0052E1
:1004100009E0D890025202E1015204E002320132B6
:10042000002EF7D708AE05D0011E021E012AD8B44F
:10043000022A5BEF03F00A50016A095C03E209C07B
:1004400000F00CD0006A080E0B6E093600360A5018
:10045000005CD8B0006E01360B2EF7D7000C0150AF
:1004600007C009F0640E0A6EE6DF00C007F0015015
:10047000300E07E108A20DD008B60BD008B8200E48
:1004800003D0089608980880012601509EA8FED740
:10049000AD6E07C009F00A0E0A6ECDDF00C007F08E
:1004A0000150300E06E108B609D008A007D008B800
:1004B000200E012601509EA8FED7AD6E300E0726F5
:1004C00007509EA8FED7AD6E62EF03F00C2C01D052
:1004D00003D0400E0D6E01D00D6A010E0B5C0D268F
:1004E0000D5080090E6E0F6A106EFADD000C0A5076
:1004F0000C0A05E0060A0BE0020A0FE013D00F6AAF
:10050000010E106EEDDD020E0B6EA5DD11D0010E99
:100510000B6E020E0C6EDADF0BD00F6A100E106E2F
:10052000DFDD06D0010E0F6E0AC010F0D9DD00D05D
:10053000000C0900F6CF08F0F7CF09F0F5CF0AF06C
:10054000D6DF08C0F6FF09C0F7FF072EF2D7000C70
:10055000015007C009F0640E0A6E6DDF00C007F09D
:100560000150300E07E108A20CD008B60AD008B836
:10057000200E03D0089608980880012601C00AF0D2
:10058000B6DF07C009F00A0E0A6E55DF00C007F09B
:100590000150300E06E108B608D008A006D008B811
:1005A000200E012601C00AF0A2DF300E072607C088
:1005B0000AF09DDF79EF03F00900F5520CE0F6CF69
:1005C00007F0F7CF08F0F5CF0AF091DF07C0F6FF8C
:1005D00008C0F7FFF1D7000CF86AD09EEA6AE96A12
:1005E000700ED36ED350B8960C0EAF6EA20EAC6EDA
:1005F000900EAB6E056A046A066AC150C00B0F0903
:10060000C16E070EB46E86D5C150C00B0E09C16E07
:10061000C080C092C094C08EC280000E016EC250D5
:10062000C30B0110C26E0D0E006E002EFED7C282EB
:10063000C2B2FED7C3CF04F0C4CF05F005C008F0A6
:1006400004C007F097D500C007F001C008F002C051
:1006500009F003C00AF003C00EF002C00DF001C0A3
:100660000CF000C00BF0126A116A7A0E106E870E41
:100670000F6E9CD500C007F001C008F002C009F061
:1006800003C00AF003C00EF002C00DF001C00CF070
:1006900000C00BF0126AC00E116E7F0E106E880E35
:1006A0000F6EFED503C00AF002C009F001C008F0C9
:1006B00000C007F0A3D601C006F006C007F01B0E6D
:1006C000086ECDD60A0E9EA8FED7AD6E010E0B6E3B
:1006D0000C6EFCDE0650640814E3180EF66E000E75
:1006E000F76E170E076E25DF06C007F01B0E086EAB
:1006F0002FD7310EF66E000EF76E040E076E19DF5F
:1007000005D0360EF66E000EF76E56DF86D7540E05
:0A071000F66E000EF76E50DF0300D6
:020000040030CA
:0E0000003FC8380E000781000FC00FE00F4010
:00000001FF
;PIC18F4550
;CRC=B1EF  CREATED="07-jul.-20 01:43"
